{
  "contractName": "ALFTransparency",
  "abi": [
    {
      "inputs": [],
      "payable": false,
      "stateMutability": "nonpayable",
      "type": "constructor"
    },
    {
      "anonymous": false,
      "inputs": [
        {
          "indexed": false,
          "internalType": "string",
          "name": "rootHash",
          "type": "string"
        },
        {
          "indexed": false,
          "internalType": "string",
          "name": "user",
          "type": "string"
        },
        {
          "indexed": false,
          "internalType": "string",
          "name": "timestamp",
          "type": "string"
        }
      ],
      "name": "NewHash",
      "type": "event"
    },
    {
      "constant": true,
      "inputs": [],
      "name": "owner",
      "outputs": [
        {
          "internalType": "address",
          "name": "",
          "type": "address"
        }
      ],
      "payable": false,
      "stateMutability": "view",
      "type": "function"
    },
    {
      "constant": false,
      "inputs": [
        {
          "internalType": "string",
          "name": "_rootHash",
          "type": "string"
        },
        {
          "internalType": "string",
          "name": "_user",
          "type": "string"
        },
        {
          "internalType": "string",
          "name": "_timestamp",
          "type": "string"
        }
      ],
      "name": "sendHash",
      "outputs": [],
      "payable": false,
      "stateMutability": "nonpayable",
      "type": "function"
    },
    {
      "constant": true,
      "inputs": [
        {
          "internalType": "string",
          "name": "_timestamp",
          "type": "string"
        }
      ],
      "name": "getHash",
      "outputs": [
        {
          "internalType": "string",
          "name": "",
          "type": "string"
        },
        {
          "internalType": "string",
          "name": "",
          "type": "string"
        }
      ],
      "payable": false,
      "stateMutability": "view",
      "type": "function"
    }
  ],
  "bytecode": "0x608060405234801561001057600080fd5b50336000806101000a81548173ffffffffffffffffffffffffffffffffffffffff021916908373ffffffffffffffffffffffffffffffffffffffff160217905550610b42806100606000396000f3fe608060405234801561001057600080fd5b50600436106100415760003560e01c80630beb7186146100465780635b6beeb91461022f5780638da5cb5b146103cf575b600080fd5b61022d6004803603606081101561005c57600080fd5b810190808035906020019064010000000081111561007957600080fd5b82018360208201111561008b57600080fd5b803590602001918460018302840111640100000000831117156100ad57600080fd5b91908080601f016020809104026020016040519081016040528093929190818152602001838380828437600081840152601f19601f8201169050808301925050505050505091929192908035906020019064010000000081111561011057600080fd5b82018360208201111561012257600080fd5b8035906020019184600183028401116401000000008311171561014457600080fd5b91908080601f016020809104026020016040519081016040528093929190818152602001838380828437600081840152601f19601f820116905080830192505050505050509192919290803590602001906401000000008111156101a757600080fd5b8201836020820111156101b957600080fd5b803590602001918460018302840111640100000000831117156101db57600080fd5b91908080601f016020809104026020016040519081016040528093929190818152602001838380828437600081840152601f19601f820116905080830192505050505050509192919290505050610419565b005b6102e86004803603602081101561024557600080fd5b810190808035906020019064010000000081111561026257600080fd5b82018360208201111561027457600080fd5b8035906020019184600183028401116401000000008311171561029657600080fd5b91908080601f016020809104026020016040519081016040528093929190818152602001838380828437600081840152601f19601f820116905080830192505050505050509192919290505050610827565b604051808060200180602001838103835285818151815260200191508051906020019080838360005b8381101561032c578082015181840152602081019050610311565b50505050905090810190601f1680156103595780820380516001836020036101000a031916815260200191505b50838103825284818151815260200191508051906020019080838360005b83811015610392578082015181840152602081019050610377565b50505050905090810190601f1680156103bf5780820380516001836020036101000a031916815260200191505b5094505050505060405180910390f35b6103d7610a43565b604051808273ffffffffffffffffffffffffffffffffffffffff1673ffffffffffffffffffffffffffffffffffffffff16815260200191505060405180910390f35b6000809054906101000a900473ffffffffffffffffffffffffffffffffffffffff1673ffffffffffffffffffffffffffffffffffffffff163373ffffffffffffffffffffffffffffffffffffffff16146104db576040517f08c379a00000000000000000000000000000000000000000000000000000000081526004018080602001828103825260198152602001807f4f6e6c79206f776e65722063616e2073656e6420686173682e0000000000000081525060200191505060405180910390fd5b6001816040518082805190602001908083835b6020831061051157805182526020820191506020810190506020830392506104ee565b6001836020036101000a038019825116818451168082178552505050505050905001915050908152602001604051809103902060020160009054906101000a900460ff16156105c8576040517f08c379a00000000000000000000000000000000000000000000000000000000081526004018080602001828103825260178152602001807f4861736820697320616c72656164792073746f7265642e00000000000000000081525060200191505060405180910390fd5b6040518060600160405280848152602001838152602001600115158152506001826040518082805190602001908083835b6020831061061c57805182526020820191506020810190506020830392506105f9565b6001836020036101000a0380198251168184511680821785525050505050509050019150509081526020016040518091039020600082015181600001908051906020019061066b929190610a68565b506020820151816001019080519060200190610688929190610a68565b5060408201518160020160006101000a81548160ff0219169083151502179055509050507ff09f9670cdf159e2980e6c5c6afd82ec6bdc97e2348b4e70eb36d8b0bfe5f67583838360405180806020018060200180602001848103845287818151815260200191508051906020019080838360005b838110156107185780820151818401526020810190506106fd565b50505050905090810190601f1680156107455780820380516001836020036101000a031916815260200191505b50848103835286818151815260200191508051906020019080838360005b8381101561077e578082015181840152602081019050610763565b50505050905090810190601f1680156107ab5780820380516001836020036101000a031916815260200191505b50848103825285818151815260200191508051906020019080838360005b838110156107e45780820151818401526020810190506107c9565b50505050905090810190601f1680156108115780820380516001836020036101000a031916815260200191505b50965050505050505060405180910390a1505050565b6060806001836040518082805190602001908083835b60208310610860578051825260208201915060208101905060208303925061083d565b6001836020036101000a03801982511681845116808217855250505050505090500191505090815260200160405180910390206000016001846040518082805190602001908083835b602083106108cc57805182526020820191506020810190506020830392506108a9565b6001836020036101000a0380198251168184511680821785525050505050509050019150509081526020016040518091039020600101818054600181600116156101000203166002900480601f0160208091040260200160405190810160405280929190818152602001828054600181600116156101000203166002900480156109975780601f1061096c57610100808354040283529160200191610997565b820191906000526020600020905b81548152906001019060200180831161097a57829003601f168201915b50505050509150808054600181600116156101000203166002900480601f016020809104026020016040519081016040528092919081815260200182805460018160011615610100020316600290048015610a335780601f10610a0857610100808354040283529160200191610a33565b820191906000526020600020905b815481529060010190602001808311610a1657829003601f168201915b5050505050905091509150915091565b6000809054906101000a900473ffffffffffffffffffffffffffffffffffffffff1681565b828054600181600116156101000203166002900490600052602060002090601f016020900481019282601f10610aa957805160ff1916838001178555610ad7565b82800160010185558215610ad7579182015b82811115610ad6578251825591602001919060010190610abb565b5b509050610ae49190610ae8565b5090565b610b0a91905b80821115610b06576000816000905550600101610aee565b5090565b9056fea265627a7a72315820cbfb59bf6cd2cf2bc79003fece2aec8bd48f75410ead6b0f35247961c6a278b764736f6c63430005110032",
  "source": "pragma solidity >=0.5.0 <0.7.0;\n\n/// @title ALFTransparency\n/// @notice Implements offer hashing on the basis of the ALF Flex Market\n/// @dev store Merkle root hash on the blockchain\ncontract ALFTransparency {\n    /// @notice owner of the contract\n    address public owner;\n\n    /// @notice sets contract creating account as owner\n    /// @dev register the creator of the contract\n    constructor() public {\n        owner = msg.sender;\n    }\n\n    /// create Hash struct with three fields\n    struct Hash {\n        string rootHash;\n        string user;\n        bool stored;\n    }\n\n    /// @dev Modifier to check that the caller is the owner of the contract\n    modifier onlyOwner() {\n        require(msg.sender == owner, \"Only owner can send hash.\");\n        _;\n    }\n\n    /// @notice event fired when a hash is sent\n    event NewHash(string rootHash, string user, string timestamp);\n\n    /// @notice map timestamp to Hash struct\n    mapping(string => Hash) private hashes;\n\n    /// @notice send Merkle root hash and username\n    /// @dev fire the event when hash is sent\n    /// @param _rootHash Merkle root hash\n    /// @param _user username\n    /// @param _timestamp timestamp when the root hash was created\n    function sendHash(\n        string memory _rootHash,\n        string memory _user,\n        string memory _timestamp\n    ) public onlyOwner {\n        require(!hashes[_timestamp].stored, \"Hash is already stored.\");\n        hashes[_timestamp] = Hash(_rootHash, _user, true);\n        emit NewHash(_rootHash, _user, _timestamp);\n    }\n\n    /// @notice get the hash for a given timestamp\n    /// @dev returns the root hash for a given timestamp\n    /// @param _timestamp when the root hash was created\n    /// @return root Merkle root hash and username\n    function getHash(string memory _timestamp)\n        public\n        view\n        returns (string memory, string memory)\n    {\n        return (hashes[_timestamp].rootHash, hashes[_timestamp].user);\n    }\n}\n",
  "sourcePath": "/home/yahya/Documents/GitHub/alf-transparency/truffle/contracts/ALFTransparency.sol",
  "compiler": {
    "name": "solc",
    "version": "0.5.17+commit.d19bba13.Emscripten.clang"
  },
  "schemaVersion": "3.2.3",
  "updatedAt": "2020-08-12T06:10:30.580Z",
  "networkType": "ethereum",
  "devdoc": {
    "details": "store Merkle root hash on the blockchain",
    "methods": {
      "constructor": {
        "details": "register the creator of the contract"
      },
      "getHash(string)": {
        "details": "returns the root hash for a given timestamp",
        "params": {
          "_timestamp": "when the root hash was created"
        },
        "return": "root Merkle root hash and username"
      },
      "sendHash(string,string,string)": {
        "details": "fire the event when hash is sent",
        "params": {
          "_rootHash": "Merkle root hash",
          "_timestamp": "timestamp when the root hash was created",
          "_user": "username"
        }
      }
    },
    "title": "ALFTransparency"
  },
  "userdoc": {
    "methods": {
      "constructor": "sets contract creating account as owner",
      "getHash(string)": {
        "notice": "get the hash for a given timestamp"
      },
      "sendHash(string,string,string)": {
        "notice": "send Merkle root hash and username"
      }
    },
    "notice": "Implements offer hashing on the basis of the ALF Flex Market"
  }
}