{
  "contractName": "ALFTransparency",
  "abi": [
    {
      "anonymous": false,
      "inputs": [
        {
          "indexed": false,
          "internalType": "string",
          "name": "docHash",
          "type": "string"
        },
        {
          "indexed": false,
          "internalType": "string",
          "name": "docType",
          "type": "string"
        },
        {
          "indexed": false,
          "internalType": "uint256",
          "name": "timestamp",
          "type": "uint256"
        }
      ],
      "name": "NewHash",
      "type": "event"
    },
    {
      "inputs": [
        {
          "internalType": "string",
          "name": "_docHash",
          "type": "string"
        },
        {
          "internalType": "string",
          "name": "_docType",
          "type": "string"
        },
        {
          "internalType": "uint256",
          "name": "_timestamp",
          "type": "uint256"
        }
      ],
      "name": "sendHash",
      "outputs": [],
      "stateMutability": "nonpayable",
      "type": "function"
    }
  ],
  "bytecode": "0x608060405234801561001057600080fd5b506102d8806100206000396000f3fe608060405234801561001057600080fd5b506004361061002b5760003560e01c80637d800bfa14610030575b600080fd5b61018a6004803603606081101561004657600080fd5b810190808035906020019064010000000081111561006357600080fd5b82018360208201111561007557600080fd5b8035906020019184600183028401116401000000008311171561009757600080fd5b91908080601f016020809104026020016040519081016040528093929190818152602001838380828437600081840152601f19601f820116905080830192505050505050509192919290803590602001906401000000008111156100fa57600080fd5b82018360208201111561010c57600080fd5b8035906020019184600183028401116401000000008311171561012e57600080fd5b91908080601f016020809104026020016040519081016040528093929190818152602001838380828437600081840152601f19601f8201169050808301925050505050505091929192908035906020019092919050505061018c565b005b7f23ba23fbaa1f0754844f3132a67c8d09534293dd68dfda04d531d93fdc56efcb838383604051808060200180602001848152602001838103835286818151815260200191508051906020019080838360005b838110156101fa5780820151818401526020810190506101df565b50505050905090810190601f1680156102275780820380516001836020036101000a031916815260200191505b50838103825285818151815260200191508051906020019080838360005b83811015610260578082015181840152602081019050610245565b50505050905090810190601f16801561028d5780820380516001836020036101000a031916815260200191505b509550505050505060405180910390a150505056fea2646970667358221220205901a0fb870afef3d9748218cbb2871ba3b0c88068236192d47370ff8c7fc564736f6c63430006000033",
  "source": "pragma solidity >=0.4.21 <0.7.0;\n\n\n/// @title ALFTransparency\n/// @author Muhammad Yahya @ OLI Systems GmbH\n/// @notice Implements doc hashing on the basis of the ALF Flex Market\n/// @dev send hash to the blockchain\ncontract ALFTransparency {\n  /// @notice event fired when a hash is sent\n    event NewHash(string docHash, string docType, uint256 timestamp);\n\n    /// @notice send document hash with doc type and timestamp\n    /// @dev fire the event when hash is sent\n    /// @param _docHash sha3 hash of the document\n    /// @param _docType document type\n    /// @param _timestamp timestamp when the hash was created\n    function sendHash(\n        string memory _docHash,\n        string memory _docType,\n        uint256 _timestamp\n    ) public {\n        emit NewHash(_docHash, _docType, _timestamp);\n    }\n}\n",
  "sourcePath": "/home/yahya/Documents/GitHub/alf-transparency/contracts/ALFTransparency.sol",
  "compiler": {
    "name": "solc",
    "version": "0.6.0+commit.26b70077.Emscripten.clang"
  },
  "schemaVersion": "3.1.0",
  "updatedAt": "2020-05-20T09:43:32.332Z",
  "networkType": "ethereum",
  "devdoc": {
    "author": "Muhammad Yahya @ OLI Systems GmbH",
    "details": "send hash to the blockchain",
    "methods": {
      "sendHash(string,string,uint256)": {
        "details": "fire the event when hash is sent",
        "params": {
          "_docHash": "sha3 hash of the document",
          "_docType": "document type",
          "_timestamp": "timestamp when the hash was created"
        }
      }
    },
    "title": "ALFTransparency"
  },
  "userdoc": {
    "methods": {
      "sendHash(string,string,uint256)": {
        "notice": "send document hash with doc type and timestamp"
      }
    },
    "notice": "Implements doc hashing on the basis of the ALF Flex Market"
  }
}