{
  "contractName": "ALFTransparency",
  "abi": [
    {
      "inputs": [],
      "payable": false,
      "stateMutability": "nonpayable",
      "type": "constructor"
    },
    {
      "anonymous": false,
      "inputs": [
        {
          "indexed": false,
          "internalType": "string",
          "name": "rootHash",
          "type": "string"
        },
        {
          "indexed": false,
          "internalType": "string",
          "name": "date",
          "type": "string"
        },
        {
          "indexed": false,
          "internalType": "uint256",
          "name": "timestamp",
          "type": "uint256"
        }
      ],
      "name": "NewHash",
      "type": "event"
    },
    {
      "constant": true,
      "inputs": [],
      "name": "owner",
      "outputs": [
        {
          "internalType": "address",
          "name": "",
          "type": "address"
        }
      ],
      "payable": false,
      "stateMutability": "view",
      "type": "function"
    },
    {
      "constant": false,
      "inputs": [
        {
          "internalType": "string",
          "name": "_rootHash",
          "type": "string"
        },
        {
          "internalType": "string",
          "name": "_date",
          "type": "string"
        }
      ],
      "name": "sendHash",
      "outputs": [],
      "payable": false,
      "stateMutability": "nonpayable",
      "type": "function"
    },
    {
      "constant": true,
      "inputs": [
        {
          "internalType": "string",
          "name": "_date",
          "type": "string"
        }
      ],
      "name": "getHash",
      "outputs": [
        {
          "internalType": "string",
          "name": "",
          "type": "string"
        },
        {
          "internalType": "uint256",
          "name": "",
          "type": "uint256"
        }
      ],
      "payable": false,
      "stateMutability": "view",
      "type": "function"
    }
  ],
  "bytecode": "0x608060405234801561001057600080fd5b50336000806101000a81548173ffffffffffffffffffffffffffffffffffffffff021916908373ffffffffffffffffffffffffffffffffffffffff160217905550610933806100606000396000f3fe608060405234801561001057600080fd5b50600436106100415760003560e01c80630c48ae99146100465780635b6beeb9146101985780638da5cb5b146102d3575b600080fd5b6101966004803603604081101561005c57600080fd5b810190808035906020019064010000000081111561007957600080fd5b82018360208201111561008b57600080fd5b803590602001918460018302840111640100000000831117156100ad57600080fd5b91908080601f016020809104026020016040519081016040528093929190818152602001838380828437600081840152601f19601f8201169050808301925050505050505091929192908035906020019064010000000081111561011057600080fd5b82018360208201111561012257600080fd5b8035906020019184600183028401116401000000008311171561014457600080fd5b91908080601f016020809104026020016040519081016040528093929190818152602001838380828437600081840152601f19601f82011690508083019250505050505050919291929050505061031d565b005b610251600480360360208110156101ae57600080fd5b81019080803590602001906401000000008111156101cb57600080fd5b8201836020820111156101dd57600080fd5b803590602001918460018302840111640100000000831117156101ff57600080fd5b91908080601f016020809104026020016040519081016040528093929190818152602001838380828437600081840152601f19601f8201169050808301925050505050505091929192905050506106b2565b6040518080602001838152602001828103825284818151815260200191508051906020019080838360005b8381101561029757808201518184015260208101905061027c565b50505050905090810190601f1680156102c45780820380516001836020036101000a031916815260200191505b50935050505060405180910390f35b6102db610834565b604051808273ffffffffffffffffffffffffffffffffffffffff1673ffffffffffffffffffffffffffffffffffffffff16815260200191505060405180910390f35b6000809054906101000a900473ffffffffffffffffffffffffffffffffffffffff1673ffffffffffffffffffffffffffffffffffffffff163373ffffffffffffffffffffffffffffffffffffffff16146103df576040517f08c379a00000000000000000000000000000000000000000000000000000000081526004018080602001828103825260198152602001807f4f6e6c79206f776e65722063616e2073656e6420686173682e0000000000000081525060200191505060405180910390fd5b6001816040518082805190602001908083835b6020831061041557805182526020820191506020810190506020830392506103f2565b6001836020036101000a038019825116818451168082178552505050505050905001915050908152602001604051809103902060020160009054906101000a900460ff16156104cc576040517f08c379a00000000000000000000000000000000000000000000000000000000081526004018080602001828103825260178152602001807f4861736820697320616c72656164792073746f7265642e00000000000000000081525060200191505060405180910390fd5b6040518060600160405280838152602001428152602001600115158152506001826040518082805190602001908083835b6020831061052057805182526020820191506020810190506020830392506104fd565b6001836020036101000a0380198251168184511680821785525050505050509050019150509081526020016040518091039020600082015181600001908051906020019061056f929190610859565b506020820151816001015560408201518160020160006101000a81548160ff0219169083151502179055509050507f23ba23fbaa1f0754844f3132a67c8d09534293dd68dfda04d531d93fdc56efcb828242604051808060200180602001848152602001838103835286818151815260200191508051906020019080838360005b8381101561060b5780820151818401526020810190506105f0565b50505050905090810190601f1680156106385780820380516001836020036101000a031916815260200191505b50838103825285818151815260200191508051906020019080838360005b83811015610671578082015181840152602081019050610656565b50505050905090810190601f16801561069e5780820380516001836020036101000a031916815260200191505b509550505050505060405180910390a15050565b606060006001836040518082805190602001908083835b602083106106ec57805182526020820191506020810190506020830392506106c9565b6001836020036101000a03801982511681845116808217855250505050505090500191505090815260200160405180910390206000016001846040518082805190602001908083835b602083106107585780518252602082019150602081019050602083039250610735565b6001836020036101000a038019825116818451168082178552505050505050905001915050908152602001604051809103902060010154818054600181600116156101000203166002900480601f0160208091040260200160405190810160405280929190818152602001828054600181600116156101000203166002900480156108245780601f106107f957610100808354040283529160200191610824565b820191906000526020600020905b81548152906001019060200180831161080757829003601f168201915b5050505050915091509150915091565b6000809054906101000a900473ffffffffffffffffffffffffffffffffffffffff1681565b828054600181600116156101000203166002900490600052602060002090601f016020900481019282601f1061089a57805160ff19168380011785556108c8565b828001600101855582156108c8579182015b828111156108c75782518255916020019190600101906108ac565b5b5090506108d591906108d9565b5090565b6108fb91905b808211156108f75760008160009055506001016108df565b5090565b9056fea265627a7a72315820fda9cbbedb7ec17313ab49ed0959cbaee0fe06a6733369a5a7ad7db17246a8cd64736f6c63430005110032",
  "source": "pragma solidity >=0.4.22 <0.7.0;\n\n/// @title ALFTransparency\n/// @notice Implements offer hashing on the basis of the ALF Flex Market\n/// @dev store Merkle root hash on the blockchain\ncontract ALFTransparency {\n    /// @notice owner of the contract\n    address public owner;\n\n    /// @notice sets contract creating account as owner\n    /// @dev register the creator of the contract\n    constructor() public {\n        owner = msg.sender;\n    }\n\n    /// create Hash struct with three fields\n    struct Hash {\n        string rootHash;\n        uint256 timestamp;\n        bool stored;\n    }\n\n    /// @dev Modifier to check that the caller is the owner of the contract\n    modifier onlyOwner() {\n        require(msg.sender == owner, \"Only owner can send hash.\");\n        _;\n    }\n\n    /// @notice event fired when a hash is sent\n    event NewHash(string rootHash, string date, uint256 timestamp);\n\n    /// @notice map timestamp to Hash struct\n    mapping(string => Hash) private hashes;\n\n    /// @notice send Merkle root hash and username\n    /// @dev fire the event when hash is sent\n    /// @param _rootHash Merkle root hash\n    /// @param _date date when the root hash was created\n    function sendHash(string memory _rootHash, string memory _date)\n        public\n        onlyOwner\n    {\n        require(!hashes[_date].stored, \"Hash is already stored.\");\n        hashes[_date] = Hash(_rootHash, now, true);\n        emit NewHash(_rootHash, _date, now);\n    }\n\n    /// @notice get the hash for a given date\n    /// @dev returns the root hash for a given timestamp\n    /// @param _date day for which the root hash was created\n    /// @return root Merkle root hash and timestamp\n    function getHash(string memory _date)\n        public\n        view\n        returns (string memory, uint256)\n    {\n        return (hashes[_date].rootHash, hashes[_date].timestamp);\n    }\n}\n",
  "sourcePath": "/home/yahya/Documents/GitHub/alf-transparency/truffle/contracts/ALFTransparency.sol",
  "compiler": {
    "name": "solc",
    "version": "0.5.17+commit.d19bba13.Emscripten.clang"
  },
  "schemaVersion": "3.3.2",
  "updatedAt": "2020-11-16T13:05:15.261Z",
  "networkType": "ethereum",
  "devdoc": {
    "details": "store Merkle root hash on the blockchain",
    "methods": {
      "constructor": {
        "details": "register the creator of the contract"
      },
      "getHash(string)": {
        "details": "returns the root hash for a given timestamp",
        "params": {
          "_date": "day for which the root hash was created"
        },
        "return": "root Merkle root hash and timestamp"
      },
      "sendHash(string,string)": {
        "details": "fire the event when hash is sent",
        "params": {
          "_date": "date when the root hash was created",
          "_rootHash": "Merkle root hash"
        }
      }
    },
    "title": "ALFTransparency"
  },
  "userdoc": {
    "methods": {
      "constructor": "sets contract creating account as owner",
      "getHash(string)": {
        "notice": "get the hash for a given date"
      },
      "sendHash(string,string)": {
        "notice": "send Merkle root hash and username"
      }
    },
    "notice": "Implements offer hashing on the basis of the ALF Flex Market"
  }
}