{
  "contractName": "ALFTransparency",
  "abi": [
    {
      "anonymous": false,
      "inputs": [
        {
          "indexed": false,
          "internalType": "string",
          "name": "docHash",
          "type": "string"
        },
        {
          "indexed": false,
          "internalType": "string",
          "name": "docType",
          "type": "string"
        },
        {
          "indexed": false,
          "internalType": "uint256",
          "name": "timestamp",
          "type": "uint256"
        }
      ],
      "name": "NewHash",
      "type": "event"
    },
    {
      "constant": true,
      "inputs": [],
      "name": "creationTime",
      "outputs": [
        {
          "internalType": "uint256",
          "name": "",
          "type": "uint256"
        }
      ],
      "payable": false,
      "stateMutability": "view",
      "type": "function"
    },
    {
      "constant": true,
      "inputs": [],
      "name": "owner",
      "outputs": [
        {
          "internalType": "address",
          "name": "",
          "type": "address"
        }
      ],
      "payable": false,
      "stateMutability": "view",
      "type": "function"
    },
    {
      "constant": false,
      "inputs": [
        {
          "internalType": "string",
          "name": "_docHash",
          "type": "string"
        },
        {
          "internalType": "string",
          "name": "_docType",
          "type": "string"
        },
        {
          "internalType": "uint256",
          "name": "_timestamp",
          "type": "uint256"
        }
      ],
      "name": "sendHash",
      "outputs": [],
      "payable": false,
      "stateMutability": "nonpayable",
      "type": "function"
    }
  ],
  "bytecode": "0x6080604052336000806101000a81548173ffffffffffffffffffffffffffffffffffffffff021916908373ffffffffffffffffffffffffffffffffffffffff1602179055504260015534801561005457600080fd5b50610442806100646000396000f3fe608060405234801561001057600080fd5b50600436106100415760003560e01c80637d800bfa146100465780638da5cb5b146101a2578063d8270dce146101ec575b600080fd5b6101a06004803603606081101561005c57600080fd5b810190808035906020019064010000000081111561007957600080fd5b82018360208201111561008b57600080fd5b803590602001918460018302840111640100000000831117156100ad57600080fd5b91908080601f016020809104026020016040519081016040528093929190818152602001838380828437600081840152601f19601f8201169050808301925050505050505091929192908035906020019064010000000081111561011057600080fd5b82018360208201111561012257600080fd5b8035906020019184600183028401116401000000008311171561014457600080fd5b91908080601f016020809104026020016040519081016040528093929190818152602001838380828437600081840152601f19601f8201169050808301925050505050505091929192908035906020019092919050505061020a565b005b6101aa6103e2565b604051808273ffffffffffffffffffffffffffffffffffffffff1673ffffffffffffffffffffffffffffffffffffffff16815260200191505060405180910390f35b6101f4610407565b6040518082815260200191505060405180910390f35b6000809054906101000a900473ffffffffffffffffffffffffffffffffffffffff1673ffffffffffffffffffffffffffffffffffffffff163373ffffffffffffffffffffffffffffffffffffffff16146102cc576040517f08c379a00000000000000000000000000000000000000000000000000000000081526004018080602001828103825260198152602001807f4f6e6c79206f776e65722063616e2073656e6420686173682e0000000000000081525060200191505060405180910390fd5b7f23ba23fbaa1f0754844f3132a67c8d09534293dd68dfda04d531d93fdc56efcb838383604051808060200180602001848152602001838103835286818151815260200191508051906020019080838360005b8381101561033a57808201518184015260208101905061031f565b50505050905090810190601f1680156103675780820380516001836020036101000a031916815260200191505b50838103825285818151815260200191508051906020019080838360005b838110156103a0578082015181840152602081019050610385565b50505050905090810190601f1680156103cd5780820380516001836020036101000a031916815260200191505b509550505050505060405180910390a1505050565b6000809054906101000a900473ffffffffffffffffffffffffffffffffffffffff1681565b6001548156fea265627a7a72315820a816d66b831c6ee49265c0804fecb2a65d7852446da66685b1a35a7bc1e524d964736f6c63430005110032",
  "source": "pragma solidity >=0.5.0 <0.7.0;\n\n\n/// @title ALFTransparency\n/// @author Muhammad Yahya @OLI Systems GmbH\n/// @notice Implements doc hashing on the basis of the ALF Flex Market\n/// @dev send hash to the blockchain\ncontract ALFTransparency {\n    /// @notice sets contract creating account as owner at the construction\n    address public owner = msg.sender;\n    /// @notice contract creation time\n    uint256 public creationTime = now;\n\n    /// @dev Modifier to check that the caller is the owner of the contract\n    modifier onlyOwner() {\n        require(msg.sender == owner, \"Only owner can send hash.\");\n        _;\n    }\n\n    /// @notice event fired when a hash is sent\n    event NewHash(string docHash, string docType, uint256 timestamp);\n\n    /// @notice send document hash with doc type and timestamp\n    /// @dev fire the event when hash is sent\n    /// @param _docHash sha3 hash of the document\n    /// @param _docType document type\n    /// @param _timestamp timestamp when the hash was created\n    function sendHash(\n        string memory _docHash,\n        string memory _docType,\n        uint256 _timestamp\n    ) public onlyOwner {\n        emit NewHash(_docHash, _docType, _timestamp);\n    }\n}\n",
  "sourcePath": "/home/yahya/Documents/GitHub/alf-transparency/contracts/ALFTransparency.sol",
  "compiler": {
    "name": "solc",
    "version": "0.5.17+commit.d19bba13.Emscripten.clang"
  },
  "schemaVersion": "3.1.0",
  "updatedAt": "2020-05-26T11:21:20.893Z",
  "networkType": "ethereum",
  "devdoc": {
    "author": "Muhammad Yahya @OLI Systems GmbH",
    "details": "send hash to the blockchain",
    "methods": {
      "sendHash(string,string,uint256)": {
        "details": "fire the event when hash is sent",
        "params": {
          "_docHash": "sha3 hash of the document",
          "_docType": "document type",
          "_timestamp": "timestamp when the hash was created"
        }
      }
    },
    "title": "ALFTransparency"
  },
  "userdoc": {
    "methods": {
      "sendHash(string,string,uint256)": {
        "notice": "send document hash with doc type and timestamp"
      }
    },
    "notice": "Implements doc hashing on the basis of the ALF Flex Market"
  }
}