{
  "contractName": "SampleContract",
  "abi": [
    {
      "constant": false,
      "inputs": [
        {
          "name": "x",
          "type": "uint256"
        }
      ],
      "name": "setData",
      "outputs": [],
      "payable": false,
      "stateMutability": "nonpayable",
      "type": "function"
    },
    {
      "constant": true,
      "inputs": [],
      "name": "getData",
      "outputs": [
        {
          "name": "",
          "type": "uint256"
        }
      ],
      "payable": false,
      "stateMutability": "view",
      "type": "function"
    }
  ],
  "bytecode": "0x608060405234801561001057600080fd5b5060bd8061001f6000396000f3fe6080604052348015600f57600080fd5b506004361060325760003560e01c80633bc5de301460375780635b4b73a9146053575b600080fd5b603d607e565b6040518082815260200191505060405180910390f35b607c60048036036020811015606757600080fd5b81019080803590602001909291905050506087565b005b60008054905090565b806000819055505056fea165627a7a72305820b1c1bd20d6eba17cb052fb98c06cd76a02a8b45d7d82fd8c53d916ce5842d1760029",
  "source": "pragma solidity >=0.4.16 <0.6.0;\n\ncontract SampleContract {\n    uint256 data;\n\n    function setData(uint256 x) public {\n        data = x;\n    }\n\n    function getData() public view returns (uint256){\n        return data;\n    }\n}",
  "sourcePath": "/home/yahya/Documents/GitHub/charging-origin/contracts/SampleContract.sol",
  "compiler": {
    "name": "solc",
    "version": "0.5.8+commit.23d335f2.Emscripten.clang"
  },
  "schemaVersion": "3.0.16",
  "updatedAt": "2019-12-05T09:56:31.118Z",
  "devdoc": {
    "methods": {}
  },
  "userdoc": {
    "methods": {}
  }
}